:100000000C9402110D94E3040D94B8040D948D0426
:100010000D9462040D9437040D940C040D94E103C7
:100020000D94B6030C9433110C9433110C943311CA
:100030000C9433110C9433110C9433110C949C9840
:100040000C9433110C948ADD0C94A0DB0C94E056D4
:100050000C9433110C9433110C9433110D946C03E4
:100060000C9433110D9455020D942B020C94331102
:100070000C9433110C9433110C9433110C943311F0
:100080000C94FB950C9475950C94EF940C9433118F
:100090000C9433110C9433110C9433110C943311D0
:1000A0000C9433110C9433110C9401910C946994B9
:1000B0000C9427900C9433110C9433110C948F935F
:1000C0000C94B5920C94DB910C9433110C94331175
:1000D0000C9433110C9433110D94F5010D94CB0154
:1000E0000C9433110C945EFE0C94B5EA0C943EA46F
:1000F0000C9408A40C94C1A30C941EFC0D94CC3554
:100100000C94BCA20C94F1D70C9434FC0D9473386D
:100110000C94ABFE0C94CDF50C94F1310C9455EB92
:100120000C940C200C94428D0D9493010C94F7C9FF
:100130000C94A7AD0C94EF870C94A6A20C94A65532
:100140000C944F700C9456AD0C949CFC0C94368D12
:100150000C94B2840C9434880C942C830C94F78700
:100160000C941F7D0C942A8D0C9454F60D94390533
:100170000C94FAD70C94C9A20C9489A90C942CA4C1
:100180000C9423A40C94895C0C941EF60C9427F612
:100190000C9471FA0C9420A40C94E2F30C941C7847
:1001A0000C944D1F0C94C0830C9471770C946C8448
:1001B0000C9418840D9473370C946CA40C9444A480
:1001C0000C9462870C9453210C9437720C9488EB36
:1001D0000C942DF60C9488A30C94E7A30C948C81BA
:1001E0000C9435FF0C94DFA20C9485A30D949D050F
:1001F0000C9411B40C9481590C9420FF0C94FEFCC7
:100200000C9451FF0C9480A40C94B7210C9406B06C
:100210000C9443240D943A360C9402A40C9415F4D7
:100220000C948B790C946DA30C946DF70C943AFCA0
:100230000C9418EA0C94C27A0C9459A40C94D0A390
:100240000C94E4FB0C940EA40C94F8D80C94A0D954
:100250000D9433050C9449210C94EBA20C948E1F41
:100260000C94E6F40C9468B10C9469A40C948BA3E0
:100270000C9458FA0C94AB870C94F9A30C9465D7A2
:100280000C9410840C9424F60C94B8A30C94761857
:100290000C94D0FB0C9477180C94E9D80C945E5A0B
:1002A0000C94B1860C94FE580C94B5A20C945CFA94
:1002B0000C94388D0C94C6C70C94C2B10C940C8469
:1002C0000C942C880C94B0150C949F3C0C94E0C7B3
:1002D0000C94BC830C949FFC0C94734E0C942AF6E3
:1002E0000C94E0820C947B180C944AC90C94DB7239
:1002F0000C9494F40C9491E70C94E2150C9404FC87
:100300000C94A0F60C9478C70C948DD70C94A6A3EB
:100310000C94A1390C948E160C9428830C946B6069
:100320000C9491F90C94E9E70C9497340C94802A7E
:100330000C942FA40C9490160C94B6D70C94A2FB9A
:100340000C944DFF0C9467710C947BA40C94EED824
:100350000D94E0360C9420160C9470830C947FA3BB
:100360000C94E9860C9462A30C9494A30C9481469B
:100370000C9470880C940FFD0C949EEB0C9417A4B5
:100380000C9479A30C94408D0C945AF40C94D626BA
:100390000C946E870C94A3F60C94E9220C945BFFEA
:1003A0000D940C340C94C3A20C940B5C0C949DF330
:1003B0000C94A5FC0C94468D0D943B050C9456FFB3
:1003C0000C9474470C946DF50C94C1510C947E18E8
:1003D0000C9446D90C94DFA30C9418AA0C94FAFD43
:1003E0000D9463050C9414A40C9455A30C9478A458
:1003F0000C947CA30C94C3F90C9454C70C941BF577
:100400000C9495F30C9472A40C9446A30C949DA3A5
:100410000C941CFE0C94AFA20C941AEB0C94245D6B
:100420000C94FAA20C94BE840C943FD70C9453A461
:100430000C94CDF80C94DB190C9435A40C94AC2BD3
:100440000C943A8D0C942BFF0C94B5860C946CC9CB
:100450000C94C7A30C942E870C9400EB0C9443FFD0
:100460000C94D1EA0C946A870C94D7780C94EEA281
:100470000C940EFE0C943BFF0C943C8D0C94148257
:100480000D94AA050C949A350C94B8E70C94DCA34F
:100490000C94C71F0C940F2D0C944AA40C94C5B750
:1004A0000C94AB200C9467500C94B4700C94A2C9BB
:1004B0000C9416FF0C94A71F0C948D790C94348D1A
:1004C0000C94F1FB0C94627A0C94BFF40C94A8FC8D
:1004D0000C9446EA0C94E7C90C94C7770C94DBF6AD
:1004E0000C9470A30C9460840C94BED70C94448D2F
:1004F0000C94A3870C94C0580C9491A30C9470187E
:100500000C94867B0C940AD90C94E5A20C94CCA292
:100510000C94C4830C94B7FB0C9404810C9488D97C
:100520000C94F6790C947A180C94C7A70C9492C783
:100530000C9460EB0C94C0B00C94507C0C94BA8476
:100540000C9497A30C94AE880C942A870C9496F480
:100550000C94BEA30C942CFC0C94C07C0D948A3596
:100560000C94BCF40C9422430C94887B0C94B9F347
:100570000C94EAEA0C941C840C9431FF0C9458827D
:100580000C9463A40C94E7870C9474FA0C94AA302E
:100590000C944DA40C94A8FB0C94F32F0C9432AB48
:1005A0000C94A5200D9424050C9478180C9427EB3A
:1005B0000C941CA30C944ED70C94CAA30C9412F860
:1005C0000C94C6A20C9402850C94488D0C94F2F500
:1005D0000C94CB6F0C94E4820C947C1A0C94454CD4
:1005E0000C94B6F40C94BBD90C94223E0C947FAEC0
:1005F0000C945FFF0C94CD880C9441A40C9450E8AB
:100600000C9447D70C944EA30C947EE90C941CD9FF
:100610000C94B8A20C941DA40C942FEA0C94EFFC3B
:100620000C9411A40C9434B30C94A0A30C9404F671
:100630000C94B6FD0C94E2A20C9470580D949E3468
:100640000C941CE90C94EAA80C94EAE90C9457FF6A
:100650000C9451210C9414840C94C6B50C94A9D913
:100660000C944D210C9401D90C94253C0C9493AF1F
:100670000C94EAA30C94D6D70C94D8A20C943FFF08
:100680000C9433F40C943BA40C948F210C94C4A3CD
:100690000C9441EB0C94BFA90D942C330D9413438F
:1006A0000C94E0200C94FB5A0C94308D0C9450D98F
:1006B0000D94FF360C9423730C94A7200C9432F8FD
:1006C0000C94ACA20C94CDD70C943E5F0C9467A311
:1006D0000C94B2A20C942C8D0C942E8D0C940C13B3
:1006E0000C94D0180C94B3870C94F4A20C94755607
:1006F0000C94DBF40C9475180C94E0AC0C94ACA343
:100700000C941B5E0C9429A40C94E0F50C94B5A3F6
:100710000C9439D70C94E8D70D947C050C941AA44A
:100720000C9475A40C94B2D90C9424560C94A2FC8D
:100730000C94C0A20C949D720C94BBA30C94774DA6
:100740000C94D3A30C9497D90D9428370C9430AC07
:100750000C94B2A30C94647F0C94FFA30C947C863D
:100760000C949C820C943AF40C945FA30C946C88C7
:100770000C9438880C94BE200C94287B0C9438A4DC
:100780000C945BFC0C945CA40C9437FC0C946BEB09
:100790000C9473A30C940C150C94F1A20C940A8580
:1007A0000C94A9A20C9455210C9498280C946FA435
:1007B0000C9429C70C94E4F60C94F6180C944EB6DD
:1007C0000C94F37B0C945AC90C9435E90C94CFFC2F
:1007D0000C9407CA0C94AF870C945FA40C940BA4E0
:1007E0000C9474830C94D6A30C9494FD0C94F7A2EF
:1007F0000C94F6A30C94AFA30C94E4FC0C943C373B
:100800000C9479180C9495D70C940DF60C94BEFDAD
:100810000C94BCE90C9406F10C9444110C94ED86F4
:100820000C9464840C94EBFD0C94E6170C9424F562
:100830000C949CEA0C94D3E90C94F0440C943D186D
:100840000D946F050C94D9A30D9437050C9445179E
:100850000C948A400D9491050C94C03E0C94B6847F
:100860000C94CDA30C94E5550C9466870C9429FC4C
:100870000C9460FF0C942FFC0C9422870C94104B6A
:100880000C94D5A20C94A9A30C9410F60C9424FFFC
:100890000D940B330C947ED90C94C31F0C943088A8
:1008A0000D942F050C94B9F40C9450A40C946E8400
:1008B0000C943E8D0C94553D0C94D2A20C94DF16F2
:1008C0000C94DFD70C9486180C94EB870C94914F02
:1008D0000C94328D0C94E2A30D948C390C943579E0
:1008E0000C9426870D9421390C9466A40C94C5F3BE
:1008F0000C94C4D90C94A3A30C9408840C9444C8FD
:100900000C9421F60C94D1E70D9431050C94DEEA99
:100910000C948EA30C9447A40C9478830D94F83512
:100920000C9467550C94F0A30C943E330C9432A4B1
:100930000C94A7870C9406850C949AA30C9449FFF9
:100940000C94DDB60C94CE450C9405A40C94E5A350
:100950000C9428FF0C94E8A20C94E9F50C9482A363
:100960000C949EB40C947D180C94403A0C943FA3C4
:100970000C947C180C948F160C9404440C944E38F0
:100980000C94ACC70C94F9590C9476A30C9456A40F
:100990000C94FBF50C940FFC0C9455D70C946DB390
:1009A0000C9497E90C9476F50C9434EB0C94FCA31E
:1009B0000C94CFA20C9414F90C9408140C9426A453
:1009C0000C9496800C94EDA30C941CFF0C946884FA
:1009D0000C94D93F0C940FAF0C94F3870C944F21D7
:1009E0000C94F3A30C9474880C9461B20C947278F8
:1009F0000C947CE70D945B050C9493EB040E11169C
:100A00001A1C212A2C2E30323436383A3C3E4042D1
:100A10004446484C4E505256585A5D5F63686F7951
:100A2000526573657420636F6E74726F6C206973A6
:100A30002063757272656E746C792064697361628B
:100A40006C65642E00436F6D6D732068616C746516
:100A5000642E204E65787420627974652077696C05
:100A60006C207265736574207468652041726475CA
:100A7000696E6F2E0000537065656475696E6F2036
:100A8000323032332E303500737065656475696EAF
:100A90006F2032303233303500000030303200FF0A
:100AA0000A5061676520686173206E6F742062650B
:100AB000656E20696D706C656D656E746564207916
:100AC0006574000A426F6F7374206C6F6F6B757082
:100AD000207461626C65000A326E642049676E6939
:100AE00074696F6E204D6170000A326E6420467525
:100AF000656C204D6170000A5061676520392043A4
:100B00006667000A5472696D2031205461626C6519
:100B1000000A565654204D6170000A426F6F73747C
:100B2000204D6170000A5067203620436F6E666961
:100B300067000A414652204D6170000A5067203418
:100B400020436667000A49676E6974696F6E204DBD
:100B50006170000A5067203220436667000A5645DC
:100B6000204D6170004572723A20556E6B6E6F7742
:100B70006E20636D64000A3D3D3D436F6D6D616E97
:100B8000642048656C703D3D3D0A0A416C6C2063F1
:100B90006F6D6D616E6473206172652073696E673D
:100BA0006C652063686172616374657220616E6454
:100BB0002061726520636F6E636174656E61746538
:100BC0006420776974682074686569722070617246
:100BD000616D6574657273200A776974686F7574E6
:100BE000207370616365732E53796E7461783A2057
:100BF000203C636F6D6D616E643E2B3C7061726171
:100C00006D65746572313E2B3C706172616D657407
:100C10006572323E2B3C706172616D657465724E17
:100C20003E0A0A3D3D3D4C697374206F6620436F58
:100C30006D6D616E64733D3D3D0A0A41202D204477
:100C40006973706C617973203331206279746573D4
:100C5000206F662063757272656E7453746174756B
:100C6000732076616C75657320696E2062696E61B0
:100C7000727920286C6976652064617461290A4262
:100C8000202D204275726E2063757272656E74201D
:100C90006D617020616E6420636F6E66696750617C
:100CA00067652076616C75657320746F206565706B
:100CB000726F6D0A43202D205465737420434F4D8D
:100CC00020706F72742E2020557365642062792025
:100CD00054756E657273747564696F20746F2073D8
:100CE0006565207768657468657220616E2045438C
:100CF00055206973206F6E206120676976656E20CC
:100D000073657269616C200A20202020706F7274F4
:100D10002E2052657475726E7320612062696E6157
:100D20007279206E756D6265722E0A4E202D2050EC
:100D300072696E74206E6577206C696E652E0A503C
:100D4000202D205365742063757272656E74207057
:100D50006167652E202053796E7461783A202050A7
:100D60002B3C706167654E756D6265723E0A52205C
:100D70002D2053616D65206173204120636F6D6D7F
:100D8000616E640A53202D20446973706C61792070
:100D90007369676E6174757265206E756D626572D8
:100DA0000A51202D2053616D65206173205320630B
:100DB0006F6D6D616E640A56202D20446973706CEE
:100DC0006179206D6170206F7220636F6E66696754
:100DD000506167652076616C75657320696E20626D
:100DE000696E6172790A57202D20536574206F6EE9
:100DF00065206279746520696E206D6170206F7264
:100E000020636F6E666967506167652E20204578A4
:100E100070656374732062696E61727920706172AB
:100E2000616D65746572732E200A2020202053792D
:100E30006E7461783A2020572B3C6F666673657438
:100E40003E2B3C6E6577627974653E0A74202D20D6
:100E50005365742063616C6962726174696F6E209E
:100E600076616C7565732E202045787065637473A8
:100E70002062696E61727920706172616D6574655E
:100E800072732E20205461626C6520696E646578EF
:100E90002069732065697468657220302C200A20EF
:100EA000202020312C206F7220322E202053796E8A
:100EB0007461783A2020742B3C74626C655F6964BD
:100EC000783E2B3C6E657756616C7565313E2B3CE8
:100ED0006E657756616C7565323E2B3C6E65775654
:100EE000616C75654E3E0A5A202D20446973706C02
:100EF00061792063616C6962726174696F6E2076DA
:100F0000616C7565730A54202D20446973706C619F
:100F100079732032353620746F6F7468206C6F6778
:100F200020656E747269657320696E2062696E61F6
:100F300072790A72202D20446973706C6179732074
:100F400032353620746F6F7468206C6F6720656E61
:100F500074726965730A55202D2050726570617234
:100F60006520666F72206669726D776172652075A3
:100F700070646174652E20546865206E65787420F5
:100F80006279746520726563656976656420776946
:100F90006C6C2063617573652074686520417264B0
:100FA00075696E6F20746F2072657365742E0A3FC9
:100FB000202D20446973706C6179732074686973A3
:100FC0002068656C702070616765002C20005755A3
:100FD00045004F3200496E6C65742074656D700079
:100FE000436F6F6C616E7400526573657420636F3C
:100FF0006E74726F6C2069732063757272656E74A3
:101000006C792064697361626C65642E00436F6D56
:101010006D732068616C7465642E204E6578742051
:10102000627974652077696C6C20726573657420D1
:101030007468652041726475696E6F2E0053706527
:10104000656475696E6F20323032332E303500732F
:101050007065656475696E6F2032303233303500EB
:101060004552523B20496E636F727265637420452E
:101070004550524F4D2073697A6500303032002060
:101080000020002000200020202020000000800000
:1010900020012001800020018000F0008001C000BC
:1010A000C0002001C00080002001000100000000FD
:1010B000963007772C610EEEBA51099919C46D0765
:1010C0008FF46A7035A563E9A395649E3288DB0EC0
:1010D000A4B8DC791EE9D5E088D9D2972B4CB609A3
:1010E000BD7CB17E072DB8E7911DBF906410B71D80
:1010F000F220B06A4871B9F3DE41BE847DD4DA1AB9
:10110000EBE4DD6D51B5D4F4C785D38356986C13E9
:10111000C0A86B647AF962FDECC9658A4F5C011462
:10112000D96C0663633D0FFAF50D088DC8206E3B40
:101130005E10694CE44160D5727167A2D1E4033C52
:1011400047D4044BFD850DD26BB50AA5FAA8B53579
:101150006C98B242D6C9BBDB40F9BCACE36CD83268
:10116000755CDF45CF0DD6DC593DD1ABAC30D9260F
:101170003A00DE518051D7C81661D0BFB5F4B42112
:1011800023C4B3569995BACF0FA5BDB89EB802280F
:101190000888055FB2D90CC624E90BB1877C6F2F94
:1011A000114C6858AB1D61C13D2D66B69041DC768F
:1011B0000671DB01BC20D2982A10D5EF8985B17168
:1011C0001FB5B606A5E4BF9F33D4B8E8A2C9077817
:1011D00034F9000F8EA8099618980EE1BB0D6A7FAE
:1011E0002D3D6D08976C6491015C63E6F4516B6B67
:1011F00062616C1CD83065854E0062F2ED95066C1C
:101200007BA5011BC1F4088257C40FF5C6D9B06590
:1012100050E9B712EAB8BE8B7C88B9FCDF1DDD62ED
:10122000492DDA15F37CD38C654CD4FB5861B24D53
:10123000CE51B53A7400BCA3E230BBD441A5DF4A1D
:10124000D795D83D6DC4D1A4FBF4D6D36AE96943E0
:10125000FCD96E34468867ADD0B860DA732D04448B
:10126000E51D03335F4C0AAAC97C0DDD3C710550B6
:10127000AA41022710100BBE86200CC925B568575D
:10128000B3856F2009D466B99FE461CE0EF9DE5EA6
:1012900098C9D9292298D0B0B4A8D7C7173DB35957
:1012A000810DB42E3B5CBDB7AD6CBAC02083B8EDE8
:1012B000B6B3BF9A0CE2B6039AD2B1743947D5EAF5
:1012C000AF77D29D1526DB048316DC73120B63E324
:1012D000843B64943E6A6D0DA85A6A7A0BCF0EE483
:1012E0009DFF099327AE000AB19E077D44930FF03E
:1012F000D2A3088768F2011EFEC206695D5762F735
:10130000CB67658071366C19E7066B6E761BD4FE71
:10131000E02BD3895A7ADA10CC4ADD676FDFB9F94E
:10132000F9EFBE8E43BEB717D58EB060E8A3D6D610
:101330007E93D1A1C4C2D83852F2DF4FF167BBD13E
:101340006757BCA6DD06B53F4B36B248DA2B0DD841
:101350004C1B0AAFF64A0336607A0441C3EF60DFE4
:1013600055DF67A8EF8E6E3179BE69468CB361CBCD
:101370001A8366BCA0D26F2536E2685295770CCCF2
:1013800003470BBBB91602222F260555BE3BBAC533
:10139000280BBDB2925AB42B046AB35CA7FFD7C224
:1013A00031CFD0B58B9ED92C1DAEDE5BB0C2649B15
:1013B00026F263EC9CA36A750A936D02A906099C48
:1013C0003F360EEB8567077213570005824ABF95BB
:1013D000147AB8E2AE2BB17B381BB60C9B8ED2923E
:1013E0000DBED5E5B7EFDC7C21DFDB0BD4D2D38695
:1013F00042E2D4F1F8B3DD686E83DA1FCD16BE8108
:101400005B26B9F6E177B06F7747B718E65A0888D8
:10141000706A0FFFCA3B06665C0B0111FF9E658F69
:1014200069AE62F8D3FF6B6145CF6C1678E20AA013
:10143000EED20DD75483044EC2B30339612667A799
:10144000F71660D04D476949DB776E3E4A6AD1AEE8
:10145000DC5AD6D9660BDF40F03BD83753AEBCA977
:10146000C59EBBDE7FCFB247E9FFB5301CF2BDBDE4
:101470008AC2BACA3093B353A6A3B4240536D0BAED
:101480009306D7CD2957DE54BF67D9232E7A66B38A
:10149000B84A61C4021B685D942B6F2A37BE0BB437
:1014A000A18E0CC31BDF055A8DEF022D000000003A
:1014B00041311B1982623632C3532D2B04C56C6433
:1014C00045F4777D86A75A56C796414F088AD9C8F2
:1014D00049BBC2D18AE8EFFACBD9F4E30C4FB5ACE3
:1014E0004D7EAEB58E2D839ECF1C98875112C24A79
:1014F0001023D953D370F4789241EF6155D7AE2EB3
:1015000014E6B537D7B5981C9684830559981B8285
:1015100018A9009BDBFA2DB09ACB36A95D5D77E662
:101520001C6C6CFFDF3F41D49E0E5ACDA2248495E3
:10153000E3159F8C2046B2A76177A9BEA6E1E8F12A
:10154000E7D0F3E82483DEC365B2C5DAAAAE5D5DF9
:10155000EB9F464428CC6B6F69FD7076AE6B3139DA
:10156000EF5A2A202C09070B6D381C12F33646DF80
:10157000B2075DC6715470ED30656BF4F7F32ABBAA
:10158000B6C231A275911C8934A00790FBBC9F178D
:10159000BA8D840E79DEA92538EFB23CFF79F3735A
:1015A000BE48E86A7D1BC5413C2ADE58054F79F0EC
:1015B000447E62E9872D4FC2C61C54DB018A159414
:1015C00040BB0E8D83E823A6C2D938BF0DC5A03815
:1015D0004CF4BB218FA7960ACE968D130900CC5CE4
:1015E0004831D7458B62FA6ECA53E177545DBBBA76
:1015F000156CA0A3D63F8D88970E96915098D7DE94
:1016000011A9CCC7D2FAE1EC93CBFAF55CD76272A0
:101610001DE6796BDEB554409F844F5958120E1663
:101620001923150FDA7038249B41233DA76BFD6504
:10163000E65AE67C2509CB576438D04EA3AE91011B
:10164000E29F8A1821CCA73360FDBC2AAFE124AD0C
:10165000EED03FB42D83129F6CB20986AB2448C9EB
:10166000EA1553D029467EFB687765E2F6793F2F6D
:10167000B7482436741B091D352A1204F2BC534B9B
:10168000B38D485270DE657931EF7E60FEF3E6E798
:10169000BFC2FDFE7C91D0D53DA0CBCCFA368A836B
:1016A000BB07919A7854BCB13965A7A84B98833B86
:1016B0000AA99822C9FAB50988CBAE104F5DEF5F31
:1016C0000E6CF446CD3FD96D8C0EC27443125AF3A2
:1016D000022341EAC1706CC1804177D847D7369761
:1016E00006E62D8EC5B500A584841BBC1A8A4171FF
:1016F0005BBB5A6898E87743D9D96C5A1E4F2D15B1
:101700005F7E360C9C2D1B27DD1C003E120098B915
:10171000533183A09062AE8BD153B59216C5F4DDE0
:1017200057F4EFC494A7C2EFD596D9F6E9BC07AE3B
:10173000A88D1CB76BDE319C2AEF2A85ED796BCA28
:10174000AC4870D36F1B5DF82E2A46E1E136DE66A9
:10175000A007C57F6354E8542265F34DE5F3B20258
:10176000A4C2A91B6791843026A09F29B8AEC5E406
:10177000F99FDEFD3ACCF3D67BFDE8CFBC6BA980A8
:10178000FD5AB2993E099FB27F3884ABB0241C2C1D
:10179000F115073532462A1E73773107B4E17048D8
:1017A000F5D06B513683467A77B25D634ED7FACB6C
:1017B0000FE6E1D2CCB5CCF98D84D7E04A1296AFD2
:1017C0000B238DB6C870A09D8941BB84465D230361
:1017D000076C381AC43F1531850E0E2842984F67A2
:1017E00003A9547EC0FA795581CB624C1FC538815C
:1017F0005EF423989DA70EB3DC9615AA1B0054E552
:101800005A314FFC996262D7D85379CE174FE149CC
:10181000567EFA50952DD77BD41CCC62138A8D2D21
:1018200052BB963491E8BB1FD0D9A006ECF37E5E84
:10183000ADC265476E91486C2FA05375E836123AD9
:10184000A90709236A5424082B653F11E479A79658
:10185000A548BC8F661B91A4272A8ABDE0BCCBF2A9
:10186000A18DD0EB62DEFDC023EFE6D9BDE1BC1453
:10187000FCD0A70D3F838A267EB2913FB924D07059
:10188000F815CB693B46E6427A77FD5BB56B65DCC4
:10189000F45A7EC5370953EE763848F7B1AE09B829
:1018A000F09F12A133CC3F8A72FD24930000000008
:1018B000376AC2016ED4840359BE4602DCA8090708
:1018C000EBC2CB06B27C8D0485164F05B851130EC2
:1018D0008F3BD10FD685970DE1EF550C64F91A09AE
:1018E0005393D8080A2D9E0A3D475C0B70A3261C13
:1018F00047C9E41D1E77A21F291D601EAC0B2F1BBC
:101900009B61ED1AC2DFAB18F5B56919C8F2351243
:10191000FF98F713A626B111914C7310145A3C1579
:101920002330FE147A8EB8164DE47A17E0464D380F
:10193000D72C8F398E92C93BB9F80B3A3CEE443F15
:101940000B84863E523AC03C6550023D58175E36C5
:101950006F7D9C3736C3DA3501A9183484BF5731FF
:10196000B3D59530EA6BD332DD01113390E56B24AA
:10197000A78FA925FE31EF27C95B2D264C4D622389
:101980007B27A0222299E62015F3242128B4782A67
:101990001FDEBA2B4660FC29710A3E28F41C712D0B
:1019A000C376B32C9AC8F52EADA2372FC08D9A708E
:1019B000F7E75871AE591E739933DC721C25937783
:1019C0002B4F517672F11774459BD57578DC897E63
:1019D0004FB64B7F16080D7D2162CF7CA4748079B1
:1019E000931E4278CAA0047AFDCAC67BB02EBC6C96
:1019F00087447E6DDEFA386FE990FA6E6C86B56BBF
:101A00005BEC776A025231683538F369087FAF6260
:101A10003F156D6366AB2B6151C1E960D4D7A665F4
:101A2000E3BD6464BA0322668D69E06720CBD748C2
:101A300017A115494E1F534B7975914AFC63DE4F30
:101A4000CB091C4E92B75A4CA5DD984D989AC446C6
:101A5000AFF00647F64E4045C12482444432CD41A2
:101A600073580F402AE649421D8C8B435068F1544D
:101A7000670233553EBC755709D6B7568CC0F8532C
:101A8000BBAA3A52E2147C50D57EBE51E839E25AE4
:101A9000DF53205B86ED6659B187A4583491EB5D26
:101AA00003FB295C5A456F5E6D2FAD5F801B35E1EE
:101AB000B771F7E0EECFB1E2D9A573E35CB33CE6D2
:101AC0006BD9FEE73267B8E5050D7AE4384A26EFB0
:101AD0000F20E4EE569EA2EC61F460EDE4E22FE804
:101AE000D388EDE98A36ABEBBD5C69EAF0B813FD4B
:101AF000C7D2D1FC9E6C97FEA90655FF2C101AFA8E
:101B00001B7AD8FB42C49EF975AE5CF848E900F335
:101B10007F83C2F2263D84F0115746F1944109F4C7
:101B2000A32BCBF5FA958DF7CDFF4FF6605D78D9F5
:101B30005737BAD80E89FCDA39E33EDBBCF571DEE3
:101B40008B9FB3DFD221F5DDE54B37DCD80C6BD7AB
:101B5000EF66A9D6B6D8EFD481B22DD504A462D051
:101B600033CEA0D16A70E6D35D1A24D210FE5EC5D2
:101B700027949CC47E2ADAC6494018C7CC5657C25F
:101B8000FB3C95C3A282D3C195E811C0A8AF4DCB51
:101B90009FC58FCAC67BC9C8F1110BC9740744CC55
:101BA000436D86CD1AD3C0CF2DB902CE4096AF91EA
:101BB00077FC6D902E422B921928E9939C3EA696B5
:101BC000AB546497F2EA2295C580E094F8C7BC9FB5
:101BD000CFAD7E9E9613389CA179FA9D246FB5985F
:101BE000130577994ABB319B7DD1F39A3035898DA6
:101BF000075F4B8C5EE10D8E698BCF8FEC9D808AE9
:101C0000DBF7428B82490489B523C68888649A83AE
:101C1000BF0E5882E6B01E80D1DADC8154CC9384AA
:101C200063A651853A1817870D72D586A0D0E2A910
:101C300097BA20A8CE0466AAF96EA4AB7C78EBAE66
:101C40004B1229AF12AC6FAD25C6ADAC1881F1A710
:101C50002FEB33A6765575A4413FB7A5C429F8A04C
:101C6000F3433AA1AAFD7CA39D97BEA2D073C4B54D
:101C7000E71906B4BEA740B689CD82B70CDBCDB25A
:101C80003BB10FB3620F49B155658BB06822D7BB2A
:101C90005F4815BA06F653B8319C91B9B48ADEBCD8
:101CA00083E01CBDDA5E5ABFED3498BE0000000030
:101CB0006567BCB88BC809AAEEAFB5125797628F9B
:101CC00032F0DE37DC5F6B25B938D79DEF28B4C51D
:101CD0008A4F087D64E0BD6F018701D7B8BFD64A3F
:101CE000DDD86AF23377DFE0561063589F571950FA
:101CF000FA30A5E8149F10FA71F8AC42C8C07BDF37
:101D0000ADA7C76743087275266FCECD707FAD95BE
:101D10001518112DFBB7A43F9ED0188727E8CF1ABE
:101D2000428F73A2AC20C6B0C9477A083EAF32A03A
:101D30005BC88E18B5673B0AD00087B26938502F50
:101D40000C5FEC97E2F059858797E53DD187866572
:101D5000B4E03ADD5A4F8FCF3F2833778610E4EA5C
:101D6000E37758520DD8ED4068BF51F8A1F82BF039
:101D7000C49F97482A30225A4F579EE2F66F497FF8
:101D80009308F5C77DA740D518C0FC6D4ED09F3590
:101D90002BB7238DC518969FA07F2A271947FDBA18
:101DA0007C204102928FF410F7E848A83D58149B1C
:101DB000583FA823B6901D31D3F7A1896ACF761476
:101DC0000FA8CAACE1077FBE8460C306D270A05ED4
:101DD000B7171CE659B8A9F43CDF154C85E7C2D10A
:101DE000E0807E690E2FCB7B6B4877C3A20F0DCBB3
:101DF000C768B17329C704614CA0B8D9F5986F447E
:101E000090FFD3FC7E5066EE1B37DA564D27B90E95
:101E1000284005B6C6EFB0A4A3880C1C1AB0DB811D
:101E20007FD767399178D22BF41F6E9303F7263B47
:101E300066909A83883F2F91ED589329546044B45B
:101E40003107F80CDFA84D1EBACFF1A6ECDF92FEE9
:101E500089B82E4667179B54027027ECBB48F07177
:101E6000DE2F4CC93080F9DB55E745639CA03F6B02
:101E7000F9C783D3176836C1720F8A79CB375DE40F
:101E8000AE50E15C40FF544E2598E8F673888BAE67
:101E900016EF3716F84082049D273EBC241FE92127
:101EA00041785599AFD7E08BCAB05C333BB659ED5A
:101EB0005ED1E555B07E5047D519ECFF6C213B62F1
:101EC000094687DAE7E932C8828E8E70D49EED2803
:101ED000B1F951905F56E4823A31583A83098FA79D
:101EE000E66E331F08C1860D6DA63AB5A4E140BD6C
:101EF000C186FC052F2949174A4EF5AFF3762232E9
:101F000096119E8A78BE2B981DD997204BC9F478DC
:101F10002EAE48C0C001FDD2A566416A1C5E96F790
:101F200079392A4F97969F5DF2F123E505196B4D9C
:101F3000607ED7F58ED162E7EBB6DE5F528E09C2C6
:101F400037E9B57AD9460068BC21BCD0EA31DF88D0
:101F50008F56633061F9D622049E6A9ABDA6BD07EA
:101F6000D8C101BF366EB4AD530908159A4E721D23
:101F7000FF29CEA511867BB774E1C70FCDD910928A
:101F8000A8BEAC2A461119382376A5807566C6D836
:101F900010017A60FEAECF729BC973CA22F1A457BA
:101FA000479618EFA939ADFDCC5E114506EE4D768A
:101FB0006389F1CE8D2644DCE841F86451792FF92C
:101FC000341E9341DAB12653BFD69AEBE9C6F9B372
:101FD0008CA1450B620EF01907694CA1BE519B3CC8
:101FE000DB3627843599929650FE2E2E99B95426C9
:101FF000FCDEE89E12715D8C7716E134CE2E36A998
:10200000AB498A1145E63F03208183BB7691E0E32B
:1020100013F65C5BFD59E949983E55F12106826C47
:1020200044613ED4AACE8BC6CFA9377E38417FD635
:102030005D26C36EB389767CD6EECAC46FD61D59B1
:102040000AB1A1E1E41E14F38179A84BD769CB133F
:10205000B20E77AB5CA1C2B939C67E0180FEA99CE5
:10206000E59915240B36A0366E511C8EA716668690
:10207000C271DA3E2CDE6F2C49B9D394F081040989
:1020800095E6B8B17B490DA31E2EB11B483ED24345
:102090002D596EFBC3F6DBE9A69167511FA9B0CCA1
:1020A0007ACE0C749461B966F10605DE0000210059
:1020B000240027002A002D00300033000101000019
:1020C000040107010A0100002200250028002B005E
:1020D0002E003100340002010000050108010B014F
:1020E000000020002300260029002C002F003200D1
:1020F00000010000030106010901050505050705AA
:1021000008080808020202020A0A08080404040473
:10211000010101010101010103030303030303039F
:10212000040707070C0C0C0C0C0C0C0C020202022E
:1021300006060606060606060B0B0B0B0B0B0B0B17
:1021400001021020200808102040102040800201C9
:1021500002010804020101020408102040808040AE
:1021600020100804020180040201804020100804AD
:10217000020108040201010204081020408001024B
:1021800004081020408000000A0B02090C0D0E0804
:102190000703040100000000000000000000000030
:1021A000000000000000000000000000000000002F
:1021B00000001211100000000000000000000000EC
:1021C0000000000000000000000000005370656582
:1021D0006475696E6F00537065656475696E6F2014
:1021E000323031392E30382D736572005370656589
:1021F0006475696E6F2063737830323031392E38F0
:1022000000004E0311241FBECFEFD1E2DEBFCDBFD1
:1022100000E00CBF12E0A0E0B2E0EEE7F0E902E07F
:102220000BBF02C007900D92A437B107D9F720E287
:10223000A4E7B2E001C01D92AD34B207E1F711E1AD
:10224000C2E0D1E100E006C021970109802FFE0124
:102250000F941348C130D10780E00807A9F70F9405
:1022600052120D943D480C940000809139208770E3
:102270009EEF980F923010F0863029F480916F0015
:10228000886080936F0008958F929F92AF92BF9263
:10229000CF92DF92EF92FF920F931F93CF93DF9332
:1022A00000D000D000D01F92CDB7DEB7E091591D0D
:1022B000EC71EC3031F48091521D24E230E081FF6A
:1022C00002C030E020E000914D1D10914E1D809124
:1022D0001A0B90911B0B801B910B6AE070E00F941E
:1022E000A145615071092C5D3F4F261737070CF44B
:1022F000ECC07C836B838B819C811816190624F0BB
:10230000820F931F9C838B838B819C8128173907B5
:1023100014F43C832B838091DB0A9091DC0A801BB0
:10232000910B6AE070E00F94A14561507109261786
:1023300037070CF4CDC07E836D838D819E81181686
:10234000190624F0820F931F9E838D838D819E81B9
:102350002817390714F43E832D838091D90A909170
:10236000DA0A801B910B6AE070E00F94A14561507E
:102370007109261737070CF4AEC078876F838F81F9
:1023800098851816190624F0820F931F98878F835B
:102390008F8198852817390714F438872F83809107
:1023A000D70A9091D80A801B910B6AE070E00F94D5
:1023B000A14561507109261737070CF48FC07A8741
:1023C000698789859A851816190624F0820F931F4C
:1023D0009A87898789859A852817390714F43A8757
:1023E00029872091190730911A0740911B075091B6
:1023F0001C07BE01675F7F4FEC3009F072C0A091EF
:102400001D07B0911E0700911F0710912007490179
:1024100084E2880E911C5A0184E2A80EB11C7D0151
:1024200084E2E80EF11C680184E2C80ED11CFE01B2
:1024300031968281938182179307A9F084179507BB
:1024400091F08A179B0779F08017910761F0881542
:10245000990549F08A159B0531F08E159F0519F0F5
:102460008C159D0519F401979383828332966E171C
:102470007F07F9F68B819C819093E9058093E805AD
:102480008D819E819093E7058093E6058F819885E5
:102490009093E5058093E40589859A859093E305FB
:1024A0008093E2052A960FB6F894DEBF0FBECDBF2B
:1024B000DF91CF911F910F91FF90EF90DF90CF9020
:1024C000BF90AF909F908F900895621B730B11CFB8
:1024D000621B730B30CF621B730B4FCF621B730BEE
:1024E0006ECFFE013196828193818217930719F096
:1024F0008417950719F401979383828332966E1798
:102500007F0789F7B7CF80910B0790910C0743970E
:1025100060F181E090E090930C0780930B0780912D
:10252000470790914807A0914907B0914A078093C7
:10253000070790930807A0930907B0930A078091B3
:10254000CE059091CF05A091D005B091D105809393
:10255000470790934807A0934907B0934A07809193
:10256000060791E08927809306078091591D8C7199
:102570008C3029F080915C0C80738033E9F5809178
:10258000CD0C9091CE0C892B01F58091521D81FDCF
:102590001CC08091C61E882349F18091C61E8823E5
:1025A00091F18091381F9091391FA0913A1FB091FD
:1025B0003B1F0196A11DB11D8093381F9093391FB9
:1025C000A0933A1FB0933B1F089581E08093C61EED
:1025D0008091661F8F7E8093661F8091551D8F7737
:1025E000E1F61092CE0C1092CD0CD7CF8091661FE1
:1025F00080618093661FD1CF81E08093C61E809159
:10260000661F8F7EF6CF1092381F1092391F1092DE
:102610003A1F10923B1F0895EF92FF920F931F9362
:10262000CF93DF9300915C1D8091591D8C718C308C
:1026300021F48091521D202F81FD20E0E0904D1D5E
:10264000F0904E1D6091CD0D7091CE0D80911A0BC2
:1026500090911B0B8E199F090F94A1456150710930
:1026600010E030E0F901E00FF11FE617F7070CF07A
:10267000ADC06E1B7F0BC0910D07D0910E07C61722
:10268000D70720F4061717070CF0BE012C0F3D1FCB
:102690002617370708F4B9017093E9056093E80538
:1026A0006091CD0D7091CE0D8091DB0A9091DC0A86
:1026B0008E199F090F94A14561507109E617F7071C
:1026C0000CF08BC06E1B7F0BC617D70720F40617C4
:1026D00017070CF0BE012617370708F4B9017093ED
:1026E000E7056093E6057093461F6093451F609170
:1026F000CD0D7091CE0D8091D90A9091DA0A8E1984
:102700009F090F94A14561507109E617F7070CF076
:102710006BC06E1B7F0BC617D70720F40617170771
:102720000CF0BE012617370708F4B9017093E505D0
:102730006093E4056091CD0D7091CE0D8091D70A24
:102740009091D80A8E199F090F94A1456150710983
:10275000E617F7070CF04FC06E1B7F0BC617D707A5
:1027600020F4061717070CF0BE012617370708F4E8
:10277000B9017093E3056093E2056091CD0D70910E
:10278000CE0D8091C50A9091C60A8E199F090F94AB
:10279000A14561507109E617F707A4F56E1B7F0B81
:1027A000C617D70720F4061717070CF0BE01261727
:1027B000370708F4B9017093C5056093C405DF912C
:1027C000CF911F910F91FF90EF9008951616170665
:1027D0000CF451CF6E0F7F1F4ECF161617060CF458
:1027E00073CF6E0F7F1F70CF161617060CF493CFA2
:1027F0006E0F7F1F90CF161617060CF4AFCF6E0F1B
:102800007F1FACCF161617065CF26E0F7F1FC8CF66
:1028100020915C1D8091591D8C718C3021F4809128
:10282000521D322F81FD30E0E0914D1DF0914E1D83
:102830006091CD0D7091CE0D80911A0B90911B0B74
:102840008E1B9F0B0F94A14561507109230F3327F5
:10285000331F161617060CF49FC0620F731FCB01AF
:1028600041978230910508F49EC0429782309105CD
:1028700008F49CC04297029708F49BC06734710526
:1028800014F066E470E07093E9056093E8056091E8
:10289000CD0D7091CE0D8091DB0A9091DC0A8E1BDC
:1028A0009F0B0F94A14561507109161617060CF481
:1028B00083C0620F731FCB0141978230910508F4EA
:1028C00082C042978230910508F480C042970297F7
:1028D00008F47FC06734710514F066E470E070930B
:1028E000E7056093E6056091CD0D7091CE0D809166
:1028F000D90A9091DA0A8E1B9F0B0F94A145615063
:102900007109161617060CF467C0620F731FCB010E
:1029100041978230910508F466C042978230910554
:1029200008F464C04297029708F463C067347105E5
:1029300014F066E470E07093E5056093E40560913F
:10294000CD0D7091CE0D8091D70A9091D80A8E1B33
:102950009F0B0F94A14561507109161617060CF4D0
:102960004BC0620F731FCB0141978230910508F471
:102970004AC042978230910508F448C042970297B6
:1029800008F447C06734710514F066E470E0709392
:10299000E3056093E2050895261737070CF05FCF33
:1029A000621B730B5CCF60E170E06DCF62E270E0A0
:1029B0006ACF64E370E067CF261737070CF07BCF50
:1029C000621B730B78CF60E170E089CF62E270E048
:1029D00086CF64E370E083CF261737070CF097CFDC
:1029E000621B730B94CF60E170E0A5CF62E270E0F0
:1029F000A2CF64E370E09FCF261737070CF0B3CF68
:102A0000621B730BB0CF60E170E0C1CF62E270E097
:102A1000BECF64E370E0BBCFCF93DF938091591DAD
:102A20008C718C3021F48091521D24E281FD20E0D4
:102A3000C0914D1DD0914E1D6091CD0D7091CE0D68
:102A400080911A0B90911B0B8C1B9D0B0F94A14531
:102A50006150710930E0F901B496E617F7070CF000
:102A600065C06E1B7F0B80910D0790910E07280F9C
:102A7000391F2617370708F4B9017093E9056093E9
:102A8000E8056091CD0D7091CE0D8091DB0A90919B
:102A9000DC0A8C1B9D0B0F94A14561507109E61750
:102AA000F7070CF04AC06E1B7F0B2617370708F498
:102AB000B9017093E7056093E6056091CD0D7091C3
:102AC000CE0D8091D90A9091DA0A8C1B9D0B0F9440
:102AD000A14561507109E617F707B4F56E1B7F0B2E
:102AE0002617370708F4B9017093E5056093E405EC
:102AF0006091CD0D7091CE0D8091D70A9091D80A3A
:102B00008C1B9D0B0F94A14561507109E617F707C7
:102B10000CF56E1B7F0B2617370708F4B90170936D
:102B2000E3056093E205DF91CF910895161617062D
:102B30000CF499CF6E0F7F1F96CF161617060CF464
:102B4000B4CF6E0F7F1FB1CF161617064CF26E0F63
:102B50007F1FC6CF16161706F4F26E0F7F1FDBCF4E
:102B60008091FD1E8930CCF481E090E09093E905DE
:102B70008093E80585E090E09093E7058093E60573
:102B800089E090E09093E5058093E4058DE090E086
:102B90009093E3058093E205089580E190E090939F
:102BA000E9058093E80584E090E09093E705809341
:102BB000E60588E090E09093E5058093E4058CE0DD
:102BC00090E0E6CFE091D406F091D5068081909117
:102BD000D306892371F08091C61E811111C08DE04A
:102BE00090E090930C0780930B0781E08093C61EC2
:102BF00008958091C61E811115C085E090E0F1CF47
:102C000080910B0790910C070D9759F08091751FDB
:102C10008F5F8093751F8DE090E090930C078093F9
:102C20000B07089580910B0790910C070597C9F346
:102C30008091751F8F5F8093751F85E090E0EDCFC9
:102C400080915A0C807F803421F58091FD1E8A305E
:102C50006CF484E290E09093E9058093E80580E1CC
:102C600090E09093E7058093E605089584311CF485
:102C700083E290E0F0CF8E311CF482E290E0EBCF63
:102C80008FE190E09093E9058093E8058DE090E076
:102C9000E8CF803609F041C08091FD1E24E230E08B
:102CA0008A3024F08431ACF423E230E03093E9053B
:102CB0002093E80529E030E03093E7052093E6050E
:102CC0008A3004F587E190E09093E5058093E40570
:102CD000089522E230E08E3134F02FE130E0883286
:102CE00014F421E230E03093E9052093E80526E072
:102CF00030E03093E7052093E6058E3134F485E12A
:102D000090E0E2CF86E190E0DFCF88321CF484E1EE
:102D100090E0DACF83E190E0D7CF08950895089549
:102D20009091FD1E8091591D8C718C3081F59A30E7
:102D3000CCF08CE090E09093E9058093E80583E087
:102D400090E09093E7058093E60586E090E090930D
:102D5000E5058093E40589E090E09093E305809396
:102D6000E205089581E090E09093E9058093E805FD
:102D700084E090E09093E7058093E60587E090E09B
:102D80009093E5058093E4058AE090E0E6CF9A30E1
:102D90006CF086E090E09093E9058093E80583E08D
:102DA00090E09093E7058093E605089581E090E038
:102DB0009093E9058093E80584E090E0F2CF80915C
:102DC0001A0B90911B0B20914D1D30914E1DAC01A3
:102DD00044505109241735070CF04BC0821B930B4C
:102DE00097FD01969595879504979093E9058093B3
:102DF000E8058091DB0A9091DC0AAC01445051094E
:102E000024173507CCF5821B930B97FD01969595FA
:102E1000879504979093E7058093E6058091D90AFA
:102E20009091DA0AAC0144505109241735073CF55A
:102E3000821B930B97FD0196959587950497909328
:102E4000E5058093E4058091D70A9091D80AAC01FA
:102E50004450510924173507ACF4821B930B97FD9E
:102E600001969595879504979093E3058093E205E5
:102E7000089580539D4FB2CF80539D4FC4CF805350
:102E80009D4FD6CF80539D4FE8CFCF92DF92EF92E8
:102E9000FF928091C61E882309F495C08091D30DBE
:102EA0009091D40DA091D50DB091D60D892B8A2B80
:102EB0008B2B09F488C08091CF0D9091D00DA091FB
:102EC000D10DB091D20D892B8A2B8B2B09F47BC0AD
:102ED0008091381F9091391FA0913A1FB0913B1FEC
:102EE0000297A105B10508F04CC0F8942091D30DCC
:102EF0003091D40D4091D50D5091D60D8091CF0DCC
:102F00009091D00DA091D10DB091D20D281B390B0D
:102F10004A0B5B0BA4EBB0E00F9439466093D80DDD
:102F20007093D90D8093DA0D9093DB0D7894C09057
:102F3000D80DD090D90DE090DA0DF090DB0D60E067
:102F400077E883E993E0A70196010F94E845C9016A
:102F5000803526E4920720F08091C71E9091C81E0C
:102F6000CC0CDD1CEE1CFF1CC0921C02D0921D027A
:102F7000E0921E02F0921F02FF90EF90DF90CF9040
:102F80000895F8948091470790914807A0914907C8
:102F9000B0914A07409107075091080760910907CF
:102FA00070910A07841B950BA60BB70BB695A795D6
:102FB000979587958093D80D9093D90DA093DA0DAE
:102FC000B093DB0DB3CF90E080E0D6CF8091FD1EB3
:102FD0009091591D9C719C3091F58A30CCF088E01D
:102FE00090E09093E9058093E80582E090E090936B
:102FF000E7058093E60584E090E09093E5058093F3
:10300000E40586E090E09093E3058093E20508955F
:103010001816ECF781E090E09093E9058093E805BD
:1030200083E090E09093E7058093E60585E090E0EB
:103030009093E5058093E40587E090E0E4CF8A3043
:103040008CF024E030E03093E9052093E80582E03D
:1030500090E09093E7058093E6053093E505209393
:10306000E405D1CF18169CF621E030E03093E90555
:103070002093E80583E090E0ECCF8091C61E81119B
:103080000EC010920C0710920B0781E08093C61EB1
:1030900083E08093CF0C81E08093060708958091B0
:1030A000531D87FF05C010920C0710920B07F0CF3D
:1030B0008091381F9091391FA0913A1FB0913B1F0A
:1030C00084369105A105B10530F780910B079091E9
:1030D0000C078D9701F310920C0710920B07DBCFB2
:1030E00010920C0710920B07089508950895089503
:1030F00008950895089508950895089510920C076D
:1031000010920B0781E080930607089580915A0C76
:10311000807F803479F58091591D8C718C30C9F491
:1031200088E090E09093E9058093E80582E090E0E4
:103130009093E7058093E60584E090E09093E505A1
:103140008093E40586E090E09093E3058093E205A8
:10315000089524E030E03093E9052093E80582E00B
:1031600090E09093E7058093E6053093E505209382
:10317000E405EACF803661F78091591D8C718C305F
:1031800079F286E090E09093E9058093E80582E08B
:1031900090E09093E7058093E60524E030E0E5CFEA
:1031A0008091FD1E82319CF487E090E09093E905C8
:1031B0008093E80582E090E09093E7058093E60530
:1031C00085E090E09093E5058093E405089586E01E
:1031D00090E09093E9058093E80581E090E090937A
:1031E000E7058093E60584E090E0ECCF80911A0B30
:1031F00090911B0B20914D1D30914E1D821B930B06
:1032000020911702309118028217930764F0821BF5
:10321000930B20915A0C22952F70243079F040F4B2
:10322000233031F1089597FFF4CF820F931FF1CF30
:103230002630F1F0283009F456C008950197843BF8
:10324000910568F082E090E09093E9058093E805AD
:1032500081E090E09093E7058093E605089581E092
:1032600090E09093E9058093E80582E090E0F2CF4A
:103270009C01295731092837310598F482E090E004
:103280009093E9058093E80583E090E09093E7054B
:103290008093E60581E090E09093E5058093E40556
:1032A00008950197803F910578F083E090E0909336
:1032B000E9058093E80581E090E09093E70580932D
:1032C000E60582E090E0E8CF81E090E09093E905A8
:1032D0008093E80582E090E09093E7058093E6050F
:1032E00083E090E0D9CF9C012B5531092A35310577
:1032F000C8F482E090E09093E9058093E80583E0CC
:1033000090E09093E7058093E60584E090E0909349
:10331000E5058093E40581E090E09093E3058093D8
:10332000E20508959C01255B31092A353105A8F491
:1033300083E090E09093E9058093E80584E090E0D5
:103340009093E7058093E60581E090E09093E50592
:103350008093E40582E090E0E0CF01978E309140C9
:10336000A8F084E090E09093E9058093E80581E07F
:1033700090E09093E7058093E60582E090E09093DB
:10338000E5058093E40583E090E0C7CF81E090E01D
:103390009093E9058093E80582E090E09093E7053B
:1033A0008093E60583E090E09093E5058093E40543
:1033B00084E090E0B2CF20915C1D8091591D8C710A
:1033C0008C3021F48091521D322F81FD30E0E0914C
:1033D0004D1DF0914E1D6091CD0D7091CE0D8091DF
:1033E0001A0B90911B0B8E1B9F0B0F94A145230F63
:1033F0003327331F261737070CF05DC0621B730B92
:103400007093E9056093E8056091CD0D7091CE0D44
:103410008091DB0A9091DC0A8E1B9F0B0F94A145D3
:10342000261737070CF04EC0621B730B7093E7052D
:103430006093E6056091CD0D7091CE0D8091D90A13
:103440009091DA0A8E1B9F0B0F94A1452617370720
:103450000CF03FC0621B730B7093E5056093E405AD
:103460006091CD0D7091CE0D8091D70A9091D80AC0
:103470008E1B9F0B0F94A145261737078CF5621BF7
:10348000730B7093E3056093E2056091CD0D70912D
:10349000CE0D8091C50A9091C60A8E1B9F0B0F948A
:1034A000A1452617370714F5621B730B7093C505EA
:1034B0006093C4050895161617060CF4A1CF620F89
:1034C000731F9ECF161617060CF4B0CF620F731F32
:1034D000ADCF161617060CF4BFCF620F731FBCCF0B
:1034E0001616170674F2620F731FCBCF1616170647
:1034F000ECF2620F731FDACFEF92FF920F931F93DC
:10350000CF93DF9300915C1D8091591D8C718C309D
:1035100021F48091521D202F81FD20E0E0904D1D6F
:10352000F0904E1D6091CD0D7091CE0D80911A0BD3
:1035300090911B0B8E199F090F94A1456150710941
:1035400010E030E0F901E00FF11FE617F7070CF08B
:10355000A9C06E1B7F0BC0910D07D0910E07C61737
:10356000D70720F4061717070CF0BE012C0F3D1FDC
:103570002617370708F4B9017093E9056093E80549
:103580006091CD0D7091CE0D8091DB0A9091DC0A97
:103590008E199F090F94A14561507109E617F7072D
:1035A0000CF087C06E1B7F0BC617D70720F40617D9
:1035B00017070CF0BE012617370708F4B9017093FE
:1035C000E7056093E6056091CD0D7091CE0D809179
:1035D000D90A9091DA0A8E199F090F94A14561507A
:1035E0007109E617F7070CF06BC06E1B7F0BC6174F
:1035F000D70720F4061717070CF0BE012617370768
:1036000008F4B9017093E5056093E4056091CD0D70
:103610007091CE0D8091D70A9091D80A8E199F098A
:103620000F94A14561507109E617F7070CF04FC0E0
:103630006E1B7F0BC617D70720F4061717070CF071
:10364000BE012617370708F4B9017093E3056093AC
:10365000E2056091CD0D7091CE0D8091C50A9091DB
:10366000C60A8E199F090F94A14561507109E6178A
:10367000F707A4F56E1B7F0BC617D70720F40617B4
:1036800017070CF0BE012617370708F4B90170932D
:10369000C5056093C405DF91CF911F910F91FF90F5
:1036A000EF900895161617060CF455CF6E0F7F1F76
:1036B00052CF161617060CF477CF6E0F7F1F74CFFC
:1036C000161617060CF493CF6E0F7F1F90CF1616A9
:1036D00017060CF4AFCF6E0F7F1FACCF1616170670
:1036E0005CF26E0F7F1FC8CF2091300B3091310BF1
:1036F000232B09F058C22091C71E3091C81E232BDE
:1037000009F451C22091E8053091E90526173707E1
:1037100009F070C02091F5103091F610233031057A
:1037200061F54091240150912501A0911A0BB091AF
:103730001B0BA81BB90B8091170290911802A817B8
:10374000B907B4F0A81BB90B2091180B3091190BD5
:103750000F942A48F6E09695879577956795FA95A0
:10376000D1F7640F751F70932901609328010895A4
:10377000B7FFEACFA80FB91FE7CF4091381F50918C
:10378000391F60913A1F70913B1F47305105610509
:10379000710508F408C24091240150912501A091BF
:1037A0001A0BB0911B0BA81BB90B809117029091BB
:1037B0001802A817B907CCF0A81BB90B2091180B59
:1037C0003091190B0F942A48E6E0969587957795E6
:1037D0006795EA95D1F7640F751F70930311609395
:1037E000021181E0809309110895B7FFE7CFA80F78
:1037F000B91FE4CF2091E6053091E705261737077A
:1038000009F070C02091DC103091DD1023303105BB
:1038100061F54091240150912501A091DB0AB091FE
:10382000DC0AA81BB90B8091170290911802A81707
:10383000B907B4F0A81BB90B2091180B3091190BE4
:103840000F942A4836E096958795779567953A952F
:10385000D1F7640F751F70932B0160932A010895AF
:10386000B7FFEACFA80FB91FE7CF4091381F50919B
:10387000391F60913A1F70913B1F47305105610518
:10388000710508F490C14091240150912501A09147
:10389000DB0AB091DC0AA81BB90B8091170290914A
:1038A0001802A817B907CCF0A81BB90B2091180B68
:1038B0003091190B0F942A4826E0969587957795B5
:1038C00067952A95D1F7640F751F7093EA1060937E
:1038D000E91081E08093F0100895B7FFE7CFA80FBB
:1038E000B91FE4CF2091E4053091E505261737078D
:1038F00009F070C02091C3103091C41023303105FD
:1039000061F54091240150912501A091D90AB0910F
:10391000DA0AA81BB90B8091170290911802A81718
:10392000B907B4F0A81BB90B2091180B3091190BF3
:103930000F942A48B6E09695879577956795BA953E
:10394000D1F7640F751F70932D0160932C010895BA
:10395000B7FFEACFA80FB91FE7CF4091381F5091AA
:10396000391F60913A1F70913B1F47305105610527
:10397000710508F418C14091240150912501A091CE
:10398000D90AB091DA0AA81BB90B8091170290915D
:103990001802A817B907CCF0A81BB90B2091180B77
:1039A0003091190B0F942A48A6E096958795779544
:1039B0006795AA95D1F7640F751F7093D110609326
:1039C000D01081E08093D7100895B7FFE7CFA80FFC
:1039D000B91FE4CF2091E2053091E30526173707A0
:1039E00009F070C02091AA103091AB10233031053E
:1039F00061F54091A4005091A500A091D70AB09123
:103A0000D80AA81BB90B8091170290911802A81729
:103A1000B907B4F0A81BB90B2091180B3091190B02
:103A20000F942A48F6E09695879577956795FA95CD
:103A3000D1F7640F751F7093A9006093A8000895D3
:103A4000B7FFEACFA80FB91FE7CF4091381F5091B9
:103A5000391F60913A1F70913B1F47305105610536
:103A6000710508F4A0C04091A4005091A500A09158
:103A7000D70AB091D80AA81BB90B80911702909170
:103A80001802A817B907CCF0A81BB90B2091180B86
:103A90003091190B0F942A48E6E096958795779513
:103AA0006795EA95D1F7640F751F7093B81060930E
:103AB000B71081E08093BE100895B7FFE7CFA80F3D
:103AC000B91FE4CF2091C4053091C50526173707EB
:103AD00009F069C020919110309192102330310586
:103AE00061F54091A4005091A500A091C50AB09144
:103AF000C60AA81BB90B8091170290911802A8174B
:103B0000B907B4F0A81BB90B2091180B3091190B11
:103B10000F942A4836E096958795779567953A955C
:103B2000D1F7640F751F7093AD006093AC000895DA
:103B3000B7FFEACFA80FB91FE7CF4091381F5091C8
:103B4000391F60913A1F70913B1F47305105610545
:103B5000710548F14091A4005091A500A091C50ABB
:103B6000B091C60AA81BB90B809117029091180258
:103B7000A817B907CCF0A81BB90B2091180B3091EE
:103B8000190B0F942A4826E09695879577956795A7
:103B90002A95D1F7640F751F70939F1060939E1044
:103BA00081E08093A5100895B7FFE7CFA80FB91F54
:103BB000E4CFCF92DF92EF92FF92FB01C090381FCB
:103BC000D090391FE0903A1FF0903B1F4091581D54
:103BD00050E070E060E0C416D506E606F70608F48B
:103BE0008DC09091C61E911104C09091661F94FFE4
:103BF00085C04091D30D5091D40D6091D50D709139
:103C0000D60D452B462B472B09F478C04091CF0D9C
:103C10005091D00D6091D10D7091D20D452B462B56
:103C2000472B09F46BC0C090D30DD090D40DE09019
:103C3000D50DF090D60D4091CF0D5091D00D6091E3
:103C4000D10D7091D20D4C155D056E057F0508F004
:103C500055C0F8942091D30D3091D40D4091D50DDD
:103C60005091D60DC090CF0DD090D00DE090D10DD9
:103C7000F090D20D2C193D094E095F09A82FB0E034
:103C80000F9439466093D80D7093D90D8093DA0D57
:103C90009093DB0D7894E03DF240A1F48091D80D33
:103CA0009091D90DA091DA0DB091DB0DB695A79545
:103CB000979587958093D80D9093D90DA093DA0DA1
:103CC000B093DB0D2091D80D3091D90D4091DA0DD4
:103CD0005091DB0D60E077E883E993E00F94E845CD
:103CE000C901803526E4920720F08091C71E90918B
:103CF000C81EFF90EF90DF90CF90089590E080E095
:103D0000F8CF9B01AC018091591D807649F4109247
:103D100013071092140710921507109216070895B2
:103D2000803281F472E056954795379527957A95BC
:103D3000D1F720931307309314074093150750933E
:103D400016070895803429F4569547953795279599
:103D5000F0CF8036E1F6A3E0B0E00F94394622E0E0
:103D600096958795779567952A95D1F76093130770
:103D700070931407809315079093160708950F9377
:103D80001F932091C61E211104C02091661F24FF9D
:103D900081C04091C71E5091C81E2091641F309170
:103DA000651F4217530768F44091381F5091391F1F
:103DB00060913A1F70913B1F452B462B472B09F40E
:103DC00069C0409147075091480760914907709139
:103DD0004A07452B462B472B09F45CC04091070747
:103DE000509108076091090770910A07452B462BEF
:103DF000472B09F44FC0F89440914707509148076A
:103E00006091490770914A070091070710910807D0
:103E10002091090730910A07401B510B620B730B6D
:103E20004093D80D5093D90D6093DA0D7093DB0D4C
:103E30007894803D9240A1F48091D80D9091D90D55
:103E4000A091DA0DB091DB0DB695A7959795879562
:103E50008093D80D9093D90DA093DA0DB093DB0D1C
:103E60002091D80D3091D90D4091DA0D5091DB0D94
:103E700060E077E883E993E00F94E845C901803575
:103E800026E4920720F08091C71E9091C81E1F91D2
:103E90000F91089590E080E0FACF8091C71E909135
:103EA000C81E2091641F3091651F8217930788F503
:103EB00020910B0730910C074091190750911A0778
:103EC0004217530751F120910B0730910C07409195
:103ED0001B0750911C0742175307F9F020910B075D
:103EE00030910C0740911D0750911E074217530750
:103EF000A1F020910B0730910C0740911F075091C2
:103F000020074217530749F068E671E084E20C94F9
:103F1000D91D88E691E00C94BF1E08958091C71EBC
:103F20009091C81E2091641F3091651F82179307DE
:103F300048F42091D70D26FF09C068E671E084E2BD
:103F40000C94D91D88E691E00C94BF1E08958091D1
:103F5000C71E9091C81E2091641F3091651F821763
:103F6000930760F420910B0730910C072130310545
:103F700049F068E671E084E20C94D91D88E691E08E
:103F80000C94BF1E089580ED92E00C94BF1E20910A
:103F9000C71E3091C81E8091641F9091651F28171D
:103FA0003907B0F590915A0C907F9034D9F48091F4
:103FB0000B0790910C07439749F180910B07909163
:103FC0000C07409719F180910B0790910C0782978D
:103FD000E9F08091D70D86FF19C068E671E084E2B0
:103FE0000C94D91D903691F480910B0790910C0799
:103FF000099761F080910B0790910C070C9731F0B5
:1040000080910B0790910C07819719F7C9010895CA
:1040100088E691E00C94BF1E8F929F92AF92BF9260
:10402000CF92DF92EF92FF928091C61E882309F40F
:1040300089C080915E1D24E6829FC00111242091D9
:10404000C71E3091C81E2817390708F06FC080912D
:10405000D30D9091D40DA091D50DB091D60D892B93
:104060008A2B8B2B09F46EC08091CF0D9091D00DCF
:10407000A091D10DB091D20D892B8A2B8B2B09F4F5
:1040800061C0F8942091CD0D3091CE0D80914707FD
:1040900090914807A0914907B0914A0740910707BE
:1040A000509108076091090770910A07841B950BCE
:1040B000A60BB70B8093D80D9093D90DA093DA0D72
:1040C000B093DB0DC090D30DD090D40DE090D50D02
:1040D000F090D60D8091CF0D9091D00DA091D10D83
:1040E000B091D20DC81AD90AEA0AFB0A7894D9010C
:1040F00020E83DE84BE550E00F9444464B015C015D
:10410000A4E2B0E0A70196010F9439469B01AC01EF
:10411000C501B4010F94E845C901FF90EF90DF900D
:10412000CF90BF90AF909F908F90089588E691E0D8
:10413000FF90EF90DF90CF90BF90AF909F908F90C7
:104140000C94BF1E90E080E0E8CF0C940C2080ED32
:1041500092E00C94BF1E8091381F9091391FA0915E
:104160003A1FB0913B1F892B8A2B8B2B21F080EDBE
:1041700092E00C94BF1E90E080E008958091C61EEE
:104180008823D9F080910B0790910C07892BA9F017
:104190002091C71E3091C81E8091641F9091651FA9
:1041A0002817390730F468E671E080915C1D0C94A3
:1041B000D91D88E691E00C94BF1E90E080E0089540
:1041C000CF92DF92EF92FF928091C61E882309F46E
:1041D0005DC02091C71E3091C81E8091641F9091D0
:1041E000651F2817390708F049C0F894E091CD0DF4
:1041F000F091CE0D8091D30D9091D40DA091D50D5D
:10420000B091D60D4091CF0D5091D00D6091D10D50
:104210007091D20D841B950BA60BB70B8093D80D14
:104220009093D90DA093DA0DB093DB0D7894209183
:10423000D80D3091D90D4091DA0D5091DB0DA4E2EB
:10424000B0E00F9439466B017C01C092D80DD0923A
:10425000D90DE092DA0DF092DB0DDF0120E037E8B6
:1042600043E953E00F944446A70196010F94E845B3
:10427000C901FF90EF90DF90CF90089588E691E01C
:10428000FF90EF90DF90CF900C94BF1E90E080E005
:10429000F0CF88E691E00C94BF1E0C9449210C9459
:1042A00049210C9449210C9449218091C71E909179
:1042B000C81E2091641F3091651F8217930718F064
:1042C0008C3D954010F560ED72E080910D070E94E5
:1042D000D91D4091D80D5091D90D6091DA0D709192
:1042E000DB0D440F551F661F771F4B3428E952071B
:1042F00025E06207710570F040931C0250931D0287
:1043000060931E0270931F02089580ED92E00E9458
:10431000BF1EDFCF4BE458E965E070E0EDCF809140
:10432000C61E882309F19091521D92704091C71EBC
:104330005091C81E2091641F3091651F421753078A
:1043400050F480915C1D60ED72E0911102C068E64E
:1043500071E00C94D91D992321F080ED92E00C942A
:10436000BF1E88E691E0FBCF90E080E00895809149
:10437000C71E9091C81E2091641F3091651F82173F
:10438000930798F420910B0730910C0721303105E9
:10439000B9F080915C1D9091521D60ED72E091FD2D
:1043A00002C068E671E00C94D91D8091521D81FF16
:1043B00004C080ED92E00C94BF1E88E691E0FBCF34
:1043C000089580913B2023E0829FC0011124209119
:1043D000EF053091F0052817390770F56091380620
:1043E0008091E7060F94B40260E08091E1060F949B
:1043F000B40261E08091E6060F94B4020F943B038F
:104400006093340670933506809336069093370692
:1044100081E090E090933306809332068091EF051F
:104420009091F00501969093F0058093EF0581E05F
:1044300080932C0680E0089581E008954091300635
:104440005091310620912E0630912F0680913C200C
:1044500090E0B901681B790B641775072CF4820F83
:10446000931F4817590774F14217530764F5609179
:1044700038068091E7060F94B40280912E06909141
:104480002F06019790932F0680932E0660E080916F
:10449000E1060F94B40261E08091E6060F94B40245
:1044A0000F943B0360933406709335068093360671
:1044B0009093370681E090E0909333068093320624
:1044C00080932C0608952417350704F76091390668
:1044D0008091E7060F94B40280912E0690912F06EA
:1044E0000196D0CFCF93DF9380913206909133061F
:1044F000019751F08091320690913306029721F096
:1045000080E0DF91CF91089580913206909133063B
:10451000C091F405D091F505019721F0C091F20505
:10452000D091F3050F943B03AB01BC01809134069D
:1045300090913506A0913606B09137068C0F9D1FDD
:10454000A11DB11D84179507A607B70708F580912F
:10455000320690913306019711F560E08091E606EE
:104560000F94B4020F943B036093340670933506A6
:1045700080933606909337068091F2059091F3056B
:10458000892B41F082E090E09093330680933206CD
:1045900081E0B7CF1092330610923206F9CF109215
:1045A0003306109232068091750D87FDA9CF2091B8
:1045B00030063091310680912E0690912F062817F3
:1045C000390709F09DCF61E08091E1060F94B402B4
:1045D00097CF0F943B036093DE057093DF058093C4
:1045E000E0059093E1058091DE059091DF05A091B3
:1045F000E005B091E1054091D00C5091D10C609153
:10460000D20C7091D30C841B950BA60BB70B809327
:10461000DA059093DB05A093DC05B093DD0580916E
:10462000D00C9091D10CA091D20CB091D30C892BCD
:104630008A2B8B2B61F58091D6059091D705A0919F
:10464000D805B091D905880F991FAA1FBB1F809369
:10465000D2059093D305A093D405B093D5051092BD
:10466000DA051092DB051092DC051092DD058091D1
:10467000DE059091DF05A091E005B091E105809302
:10468000D00C9093D10CA093D20CB093D30C40914A
:10469000DA055091DB056091DC057091DD058091B4
:1046A0000F0790911007A0911107B09112074817BA
:1046B00059076A077B0708F4DBC08091CD0C909105
:1046C000CE0C01969093CE0C8093CD0C8091DE059C
:1046D0009091DF05A091E005B091E1058093D00CA9
:1046E0009093D10CA093D20CB093D30C8091C51FA2
:1046F00085FF2BC08091551D8F7741F0833029F5C0
:104700008091CD0C9091CE0C0697F9F4E091320B8C
:10471000F091330B1995893621E092071CF08856E9
:104720009140F9CF20914D1D30914E1D821B930B6E
:104730002091CB1F2370223021F420918A1E821BEE
:10474000910990937B1F80937A1F8091551D8F77DD
:10475000C1F481E0809306078091DA059091DB0532
:10476000A091DC05B091DD05B695A7959795879545
:1047700080930F0790931007A0931107B09312072F
:104780000895833009F074C04091DA055091DB053B
:104790006091DC057091DD058091D2059091D30583
:1047A000A091D405B091D505481759076A077B0732
:1047B00068F58091DA059091DB05A091DC05B09158
:1047C000DD05B695A7959795879580930F079093EC
:1047D0001007A0931107B09312072091DA053091CA
:1047E000DB054091DC055091DD05A3E0B0E00F94BE
:1047F000394696958795779567956093D20570931E
:10480000D3058093D4059093D50508958091CD0C60
:104810009091CE0C069771F41092060780910B07C9
:1048200090910C074397F0F480910B0790910C073F
:10483000429614C08091CD0C9091CE0C0497C9F48F
:1048400081E08093060780910B0790910C074297B7
:1048500048F080910B0790910C07429790930C07BA
:1048600080930B0781E090E09093CE0C8093CD0C69
:1048700008958091CD0C9091CE0C039799F781E02B
:1048800080930607CBCF0F943B036093CE057093C4
:10489000CF058093D0059093D1058091CE0590915E
:1048A000CF05A091D005B091D1054091D30D509185
:1048B000D40D6091D50D7091D60D841B950BA60B70
:1048C000B70B8093D6059093D705A093D805B093E6
:1048D000D9054091D6055091D7056091D8057091C2
:1048E000D9058091130790911407A0911507B091F5
:1048F0001607481759076A077B0708F456C28091C4
:10490000D30D9091D40DA091D50DB091D60D892BDA
:104910008A2B8B2B09F4CEC08091CF0D9091D00DB6
:10492000A091D10DB091D20D892B8A2B8B2B09F43C
:10493000C1C02091D30D3091D40D4091D50D50912F
:10494000D60D8091CF0D9091D00DA091D10DB09149
:10495000D20D281B390B4A0B5B0BA3E0B0E00F9480
:10496000394696958795779567956093CA057093B4
:10497000CB058093CC059093CD0581E08093C61E36
:104980004091D6055091D7056091D8057091D90511
:104990008091CA059091CB05A091CC05B091CD0531
:1049A00084179507A607B70708F0DCC08091C605F5
:1049B0009091C705A091C805B091C90532E0880F54
:1049C000991FAA1FBB1F3A95D1F78093C6059093F4
:1049D000C705A093C805B093C9058091C6059091FD
:1049E000C705A091C805B091C9050196A11DB11DCB
:1049F0008093C6059093C705A093C805B093C905D9
:104A000080910B0790910C07019690930C0780936F
:104A10000B0780910B0790910C07019690930C0760
:104A200080930B0720910B0730910C0780910D07A5
:104A300090910E0728173907E8F14091C60550916B
:104A4000C7056091C8057091C9054F3B5F4F6D4F19
:104A50007D4F09F0C2C08091170790911807059704
:104A600039F181E090E090931A07809319078BE069
:104A700090E090931C0780931B0783E190E0909354
:104A80001E0780931D078EE190E09093200780938E
:104A90001F0785E090E0909318078093170784E044
:104AA00080935D1D84E290E090930E0780930D0744
:104AB0000E9483128091D30D9091D40DA091D50DB9
:104AC000B091D60D8093CF0D9093D00DA093D10DC2
:104AD000B093D20D8091CE059091CF05A091D005D5
:104AE000B091D1058093D30D9093D40DA093D50DA3
:104AF000B093D60D80915C0C86FF57C180911A1F30
:104B000081FD53C120910B0730910C074091CD0DD1
:104B10005091CE0D21503109249FC001259F900D49
:104B2000349F900D112420914D1D30914E1D820F08
:104B3000931F2091170230911802821793070CF4EB
:104B400023C1821B930B2091591D2C712C3021F411
:104B50002091060721111DC160910B0770910C0770
:104B60000C94741B8091C6059091C705A091C8054F
:104B7000B091C905880F991FAA1FBB1F8093C60556
:104B80009093C705A093C805B093C9058091C60549
:104B90009091C705A091C805B091C9050196A11DC6
:104BA000B11D8093C6059093C705A093C805B09327
:104BB000C90580910B0790910C07019690930C0703
:104BC00080930B076091D6057091D7058091D80529
:104BD0009091D9050E94811E25CF4091C605509124
:104BE000C7056091C8057091C9054F375B4F6F4F7E
:104BF0007D4D31F58091170790911807049709F4BE
:104C000057CF88E090E090931A07809319078BE0C4
:104C100090E090931C0780931B0789E190E09093AC
:104C20001E0780931D078BE190E0909320078093EF
:104C30001F0784E090E0909318078093170730CF08
:104C40004091C6055091C7056091C8057091C9058E
:104C50004F37574F6F4F7B4D11F58091170790914C
:104C60001807039709F424CF88E090E090931A077F
:104C7000809319078AE090E090931C0780931B07AC
:104C800088E190E090931E0780931D078BE190E0F0
:104C90009093200780931F0783E090E0FCCE409123
:104CA000C6055091C7056091C8057091C9054D3B77
:104CB0005F4F674F7D4F11F580911707909118074F
:104CC000029709F4F5CE81E090E090931A07809363
:104CD00019078CE090E090931C0780931B0781E1FB
:104CE00090E090931E0780931D078DE190E09093D4
:104CF000200780931F0782E090E0CDCE4091C6054B
:104D00005091C7056091C8057091C9054D3F5F4F2F
:104D1000674F7F4FC9F4809117079091180701974B
:104D200009F4C6CE81E090E090931A0780931907AA
:104D300022E130E030931C0720931B079093180763
:104D40008093170782E0ACCE20910B0730910C07BF
:104D500001968217930708F0ADCE1092C61E80917F
:104D6000CD0C9091CE0C892B59F08091661F8061FB
:104D70008093661F8091751F8F5F8093751F9ACEF9
:104D80008091661F8F7EF4CF97FFDDCE820F931F39
:104D9000DACE20910B0730910C0760915C1D620FF9
:104DA000732F711D88599E4FDBCE08950F943B03DE
:104DB0006093CE057093CF058093D0059093D10575
:104DC0008091CE059091CF05A091D005B091D105ED
:104DD0004091020750910307609104077091050705
:104DE000841B950BA60BB70B8093D6059093D70524
:104DF000A093D805B093D9054091D6055091D70519
:104E00006091D8057091D90580911307909114078E
:104E1000A0911507B0911607481759076A077B0735
:104E200008F485C18091CF0C8F5F8093CF0C809167
:104E3000020790910307A0910407B0910507892B01
:104E40008A2B8B2B09F4EBC08091FE069091FF0614
:104E5000A0910007B0910107892B8A2B8B2B09F4B5
:104E6000DEC08091020790910307A0910407B091E2
:104E700005074091FE065091FF0660910007709172
:104E80000107841B950BA60BB70B880F991FAA1F50
:104E9000BB1F8093CA059093CB05A093CC05B0931C
:104EA000CD054091D6055091D7056091D8057091F8
:104EB000D9058091CA059091CB05A091CC05B09100
:104EC000CD05481759076A077B0708F4ADC08091E4
:104ED000CF0C8F5F8093CF0C8091CF0C8F5F80932E
:104EE000CF0C8091CF0C8C3081F01092C61E809137
:104EF000751F8F5F8093751F81E08093CF0C81E0D9
:104F000090E090930C0780930B078091020790919B
:104F10000307A0910407B09105078093FE069093C4
:104F2000FF06A0930007B09301078091CE059091F2
:104F3000CF05A091D005B091D10580930207909341
:104F40000307A0930407B09305078091CF0C8C3022
:104F500069F08091D30D9091D40DA091D50DB091B1
:104F6000D60D892B8A2B8B2B09F0E1C080910B0782
:104F700090910C07019690930C0780930B078091FA
:104F80005A0C807F803609F05AC080910B079091AF
:104F90000C07079709F05CC080914707909148077C
:104FA000A0914907B0914A0780930707909308079B
:104FB000A0930907B0930A078091CE059091CF0581
:104FC000A091D005B091D1058093470790934807F1
:104FD000A0934907B0934A0791E09093C61E409171
:104FE000381F5091391F60913A1F70913B1F4F5FDE
:104FF0005F4F6F4F7F4F4093381F5093391F60931F
:105000003A1F70933B1F80910607892780930607FC
:1050100081E090E090930C0780930B0719C080E02B
:1050200091EEA5EFB5E035CF6091D6057091D7052B
:105030008091D8059091D9050E94811E66CF803459
:1050400039F480910B0790910C07059709F4A4CFD0
:1050500081E08093CF0C8091D30D9091D40DA091DD
:10506000D50DB091D60D8093CF0D9093D00DA09318
:10507000D10DB093D20D8091CE059091CF05A09126
:10508000D005B091D1058093D30D9093D40DA0930A
:10509000D50DB093D60D80915C0C86FF48C08091F1
:1050A0001A1F81FD44C020910B0730910C074091DD
:1050B000CD0D5091CE0D21503109249FC001259F67
:1050C000900D349F900D112420914D1D30914E1D57
:1050D000820F931F209117023091180282179307B5
:1050E000ACF0821B930B2091591D2C712C3041F494
:1050F00020910607222321F02091521D21FF0BC091
:1051000060910B0770910C070C94741B97FFEBCF09
:10511000820F931FE8CF20910B0730910C0760910D
:105120005C1D620F732F711D88599E4FEDCF08953E
:105130000F943B036093CE057093CF058093D00509
:105140009093D105E091D406F091D506808190919D
:10515000D306892321E030E011F430E020E0809193
:105160005D078217130609F05FC18091CE0590910B
:10517000CF05A091D005B091D1058093DA05909329
:10518000DB05A093DC05B093DD058091CE05909101
:10519000CF05A091D005B091D1054091D30D50918C
:1051A000D40D6091D50D7091D60D841B950BA60B77
:1051B000B70B8093D6059093D705A093D805B093ED
:1051C000D9054091D6055091D7056091D8057091C9
:1051D000D9058091130790911407A0911507B091FC
:1051E0001607481759076A077B0708F417C180910B
:1051F000D70D80628093D70D80910B0790910C079B
:10520000892B09F48FC08091D70D80628093D70DD0
:1052100080910B0790910C078130910509F08BC0AC
:105220009093CE0C8093CD0C86E490E09093CE0DBD
:105230008093CD0D8091470790914807A091490731
:10524000B0914A078093070790930807A093090736
:10525000B0930A078091CE059091CF05A091D0051B
:10526000B091D1058093470790934807A0934907D1
:10527000B0934A0781E08093C61E6091D605709175
:10528000D7058091D8059091D9050F94FC4620E070
:1052900030E040EE5FE30F945B460F94CD460E94F2
:1052A000811E8091381F9091391FA0913A1FB091B3
:1052B0003B1F0196A11DB11D8093381F9093391F8C
:1052C000A0933A1FB0933B1F8091D30D9091D40DC2
:1052D000A091D50DB091D60D8093CF0D9093D00DA8
:1052E000A093D10DB093D20D8091CE059091CF05B2
:1052F000A091D005B091D1058093D30D9093D40D9A
:10530000A093D50DB093D60D8091130790911407FB
:10531000A0911507B09116078135934CA105B105F1
:1053200008F481C010921307109214071092150709
:1053300010921607089580910B0790910C07823008
:105340009105D9F49093CE0C8093CD0C88E290E037
:105350009093CE0D8093CD0D6091D6057091D705B9
:105360008091D8059091D9050F94FC4620E030E05B
:1053700040EE5FE30F948A473BC080910B0790910A
:105380000C078330910599F49093CE0C8093CD0C4B
:1053900086E490E09093CE0D8093CD0D6091D6057C
:1053A0007091D7058091D8059091D90523C080913F
:1053B0000B0790910C0784309105F9F49093CE0C73
:1053C0008093CD0C86E490E09093CE0D8093CD0D2C
:1053D0006091D6057091D7058091D8059091D90537
:1053E0000F94FC4620E030E040EE5FE30F945B4614
:1053F0000F94CD460E94811E67CF80910B0790913C
:105400000C078530910509F49DCF80910B07909191
:105410000C078630910509F057CFB6CF8091D70D94
:105420008F7D8093D70D08958091D70D85FF60C043
:105430008091CE059091CF05A091D005B091D10576
:105440004091DA055091DB056091DC057091DD0536
:10545000841B950BA60BB70B4091BC055091BD0565
:105460006091BE057091BF05440F551F661F771FE1
:1054700020910B0730910C07481759076A077B07E3
:10548000C8F4232B99F020910B0730910C0726309C
:10549000310561F02091751F2F5F2093751F21E06A
:1054A00030E030930C0720930B0712C021E02093CB
:1054B000C61EF5CF26303105A1F421E030E030934F
:1054C0000C0720930B072091751F2F5F2093751FEA
:1054D0008093BC059093BD05A093BE05B093BF0516
:1054E000089520910B0730910C072F5F3F4FD9CFC4
:1054F0008091D70D85FD97CF8091D70D806291CF98
:10550000CF92DF92EF92FF928091591D8C718C3077
:1055100031F080915C0C8073803309F0F1C00F94FE
:105520003B036093DE057093DF058093E005909365
:10553000E1058091DE059091DF05A091E005B09135
:10554000E1054091D00C5091D10C6091D20C70913A
:10555000D30C841B950BA60BB70B8093DA059093A5
:10556000DB05A093DC05B093DD054091DA05509191
:10557000DB056091DC057091DD0580910F0790914E
:105580001007A0911107B091120784179507A6077D
:10559000B70708F0B5C08091D00C9091D10CA091C4
:1055A000D20CB091D30C892B8A2B8B2B09F498C089
:1055B0008091D30D9091D40DA091D50DB091D60DC1
:1055C000892B8A2B8B2B09F48BC08091CF0D909166
:1055D000D00DA091D10DB091D20D892B8A2B8B2BA0
:1055E00009F47EC02091D30D3091D40D4091D50D9A
:1055F0005091D60D8091CF0D9091D00DA091D10DED
:10560000B091D20DC090DA05D090DB05E090DC05BA
:10561000F090DD05281B390B4A0B5B0BA3E0B0E0D3
:105620000F943946C616D706E806F90608F46DC089
:105630008091CD0C9091CE0C892BF1F12091F9063F
:105640002223D1F18091CF0C90915A0C92959F70AA
:10565000882381F0E091CF0C4091CD0C5091CE0C7D
:10566000F0E0EE0FFF1FE75EF84F60817181641775
:105670007507B1F01092CF0CE7E1F7E081E09817E1
:10568000D8F04091CD0C5091CE0C6281738164179B
:10569000750719F43081231769F08F5F3296EFCFC9
:1056A0008091CF0C8F5F8093CF0C8091CF0C981797
:1056B00018F481E08093CF0C8091CD0C9091CE0CAA
:1056C0008093F90681E090E09093CE0C8093CD0C0E
:1056D00010920F07109210071092110710921207E4
:1056E0008091DE059091DF05A091E005B091E10584
:1056F0008093D00C9093D10CA093D20CB093D30C88
:10570000FF90EF90DF90CF9008958091CD0C909115
:10571000CE0C892B29F38091CD0C9091CE0C019663
:105720009093CE0C8093CD0C8091DA059091DB059F
:10573000A091DC05B091DD0522E0B695A79597957F
:1057400087952A95D1F780930F0790931007A09320
:105750001107B0931207C4CFCF92DF92EF92FF925E
:105760000F931F938091591D8C718C3029F080917B
:105770005C0C8073803319F50F943B036093DE0556
:105780007093DF058093E0059093E105E091D106E9
:10579000F091D20680819091D0068923B9F0809152
:1057A000DE059091DF05A091E005B091E1058093C1
:1057B000FE069093FF06A0930007B09301071F9188
:1057C0000F91FF90EF90DF90CF9008958091DE05CC
:1057D0009091DF05A091E005B091E1054091D00CDA
:1057E0005091D10C6091D20C7091D30C841B950B0D
:1057F000A60BB70B8093DA059093DB05A093DC052D
:10580000B093DD054091DA055091DB056091DC0530
:105810007091DD0580910F0790911007A0911107FD
:10582000B091120784179507A607B70740F6809135
:10583000D00C9091D10CA091D20CB091D30C892BAB
:105840008A2B8B2B09F48FC08091FA069091FB066E
:10585000A091FC06B091FD06892B8A2B8B2B09F4B5
:1058600082C08091CD0C9091CE0C892B49F0809113
:10587000CD0C9091CE0C01969093CE0C8093CD0CD4
:105880002091D00C3091D10C4091D20C5091D30C7E
:105890008091FA069091FB06A091FC06B091FD065E
:1058A000C090DA05D090DB05E090DC05F090DD05D6
:1058B000281B390B4A0B5B0BA3E0B0E00F94394671
:1058C0009695879577956795C616D706E806F906E3
:1058D00008F486C04091FE065091FF0660910007D3
:1058E000709101070091D00C1091D10C2091D20C35
:1058F0003091D30C8091DE059091DF05A091E005F9
:10590000B091E105C090FE06D090FF06E090000740
:10591000F0900107401B510B620B730B8C199D0912
:10592000AE09BF09481759076A077B0708F043C04B
:105930008091CD0C9091CE0C892BB1F18091CD0C42
:105940009091CE0C089781F18091CD0C9091CE0C66
:10595000892B09F040C010920F0710921007109287
:105960001107109212078091D00C9091D10CA09148
:10597000D20CB091D30C8093FA069093FB06A093BF
:10598000FC06B093FD068091DE059091DF05A091A5
:10599000E005B091E1058093D00C9093D10CA093D9
:1059A000D20CB093D30C0BCF81E090E09093CE0C4F
:1059B0008093CD0CD0CF8091CD0C9091CE0C892BC3
:1059C00039F08091CD0C9091CE0C059709F0BCCFA9
:1059D00085E090E0EBCF1092CE0C1092CD0CBBCFB7
:1059E0008091CD0C9091CE0C892B09F4BCCF809185
:1059F000DA059091DB05A091DC05B091DD0522E090
:105A0000B695A795979587952A95D1F780930F0717
:105A100090931007A0931107B0931207A4CFCF92D1
:105A2000DF92EF92FF920F931F930F943B036093CB
:105A3000CE057093CF058093D0059093D105E0916A
:105A4000D406F091D50680819091D3068923B9F0D0
:105A50008091CE059091CF05A091D005B091D10550
:105A60008093020790930307A0930407B093050760
:105A70001F910F91FF90EF90DF90CF90089580914C
:105A8000CE059091CF05A091D005B091D105409160
:105A9000D30D5091D40D6091D50D7091D60D841B0E
:105AA000950BA60BB70B8093D6059093D705A093C3
:105AB000D805B093D9054091D6055091D70560918E
:105AC000D8057091D9058091130790911407A09182
:105AD0001507B0911607481759076A077B0740F268
